{
  "contractName": "DurianSupplyChain",
  "abi": [
    {
      "inputs": [],
      "name": "buyer",
      "outputs": [
        {
          "internalType": "address payable",
          "name": "",
          "type": "address"
        }
      ],
      "stateMutability": "view",
      "type": "function",
      "constant": true
    },
    {
      "inputs": [
        {
          "internalType": "address",
          "name": "_add",
          "type": "address"
        },
        {
          "internalType": "string",
          "name": "_part",
          "type": "string"
        },
        {
          "internalType": "string",
          "name": "_name",
          "type": "string"
        },
        {
          "internalType": "string",
          "name": "_loc",
          "type": "string"
        }
      ],
      "name": "addParticipant",
      "outputs": [],
      "stateMutability": "nonpayable",
      "type": "function"
    },
    {
      "inputs": [],
      "name": "getAllFarms",
      "outputs": [
        {
          "internalType": "address[]",
          "name": "",
          "type": "address[]"
        }
      ],
      "stateMutability": "view",
      "type": "function",
      "constant": true
    },
    {
      "inputs": [],
      "name": "getAllCenter",
      "outputs": [
        {
          "internalType": "address[]",
          "name": "",
          "type": "address[]"
        }
      ],
      "stateMutability": "view",
      "type": "function",
      "constant": true
    },
    {
      "inputs": [],
      "name": "getAllRetailer",
      "outputs": [
        {
          "internalType": "address[]",
          "name": "",
          "type": "address[]"
        }
      ],
      "stateMutability": "view",
      "type": "function",
      "constant": true
    },
    {
      "inputs": [
        {
          "internalType": "uint8",
          "name": "_tree",
          "type": "uint8"
        },
        {
          "internalType": "string",
          "name": "_types",
          "type": "string"
        },
        {
          "internalType": "uint16",
          "name": "_weight",
          "type": "uint16"
        },
        {
          "internalType": "uint16",
          "name": "_price",
          "type": "uint16"
        }
      ],
      "name": "harvestDurian",
      "outputs": [],
      "stateMutability": "nonpayable",
      "type": "function"
    },
    {
      "inputs": [],
      "name": "getAllDuriansByAddress",
      "outputs": [
        {
          "internalType": "string[]",
          "name": "",
          "type": "string[]"
        }
      ],
      "stateMutability": "view",
      "type": "function",
      "constant": true
    },
    {
      "inputs": [
        {
          "internalType": "string",
          "name": "_id",
          "type": "string"
        }
      ],
      "name": "getDurianDetail",
      "outputs": [
        {
          "components": [
            {
              "internalType": "address",
              "name": "owner",
              "type": "address"
            },
            {
              "internalType": "uint8",
              "name": "tree",
              "type": "uint8"
            },
            {
              "internalType": "string",
              "name": "types",
              "type": "string"
            },
            {
              "internalType": "uint16",
              "name": "price",
              "type": "uint16"
            },
            {
              "internalType": "uint16",
              "name": "weight",
              "type": "uint16"
            },
            {
              "internalType": "uint256",
              "name": "harvestDate",
              "type": "uint256"
            },
            {
              "internalType": "address",
              "name": "farmid",
              "type": "address"
            },
            {
              "internalType": "address",
              "name": "centerid",
              "type": "address"
            },
            {
              "internalType": "uint256",
              "name": "distributeDate",
              "type": "uint256"
            },
            {
              "internalType": "string",
              "name": "deliveryMethod",
              "type": "string"
            },
            {
              "internalType": "address",
              "name": "retailer",
              "type": "address"
            },
            {
              "internalType": "uint256",
              "name": "retailDate",
              "type": "uint256"
            },
            {
              "internalType": "address",
              "name": "customer",
              "type": "address"
            },
            {
              "internalType": "uint256",
              "name": "soldDate",
              "type": "uint256"
            },
            {
              "internalType": "uint8[3]",
              "name": "ratings",
              "type": "uint8[3]"
            },
            {
              "internalType": "string",
              "name": "comment",
              "type": "string"
            }
          ],
          "internalType": "struct DurianSupplyChain.Durian",
          "name": "",
          "type": "tuple"
        }
      ],
      "stateMutability": "view",
      "type": "function",
      "constant": true
    },
    {
      "inputs": [
        {
          "internalType": "string",
          "name": "_id",
          "type": "string"
        },
        {
          "internalType": "address",
          "name": "distributionInfo",
          "type": "address"
        },
        {
          "internalType": "string",
          "name": "_delivery",
          "type": "string"
        }
      ],
      "name": "sendToDistribution",
      "outputs": [],
      "stateMutability": "nonpayable",
      "type": "function"
    },
    {
      "inputs": [
        {
          "internalType": "string",
          "name": "_id",
          "type": "string"
        },
        {
          "internalType": "address",
          "name": "retailerInfo",
          "type": "address"
        }
      ],
      "name": "sendToRetailer",
      "outputs": [],
      "stateMutability": "nonpayable",
      "type": "function"
    },
    {
      "inputs": [
        {
          "internalType": "string",
          "name": "_id",
          "type": "string"
        }
      ],
      "name": "buyFromRetailer",
      "outputs": [],
      "stateMutability": "payable",
      "type": "function",
      "payable": true
    },
    {
      "inputs": [
        {
          "internalType": "string",
          "name": "_id",
          "type": "string"
        },
        {
          "internalType": "uint8[3]",
          "name": "_ratings",
          "type": "uint8[3]"
        },
        {
          "internalType": "string",
          "name": "_comment",
          "type": "string"
        }
      ],
      "name": "addRating",
      "outputs": [],
      "stateMutability": "nonpayable",
      "type": "function"
    }
  ],
  "bytecode": "0x60806040526001600d5534801561001557600080fd5b506159ef80620000266000396000f3fe6080604052600436106100a75760003560e01c8063aed6825311610064578063aed68253146101aa578063af0cf7fc146101c6578063afe3fe3d146101ef578063db11b8691461022c578063e710382b14610255578063f95597741461027e576100a7565b806313f8befc146100ac578063397231f8146100d7578063426bf9c114610100578063477ac4881461012b5780637150d8ae146101565780638d737ef614610181575b600080fd5b3480156100b857600080fd5b506100c16102a9565b6040516100ce919061471c565b60405180910390f35b3480156100e357600080fd5b506100fe60048036038101906100f991906148c4565b610337565b005b34801561010c57600080fd5b50610115610a82565b6040516101229190614a90565b60405180910390f35b34801561013757600080fd5b506101406112c7565b60405161014d919061471c565b60405180910390f35b34801561016257600080fd5b5061016b611355565b6040516101789190614ad3565b60405180910390f35b34801561018d57600080fd5b506101a860048036038101906101a39190614bdd565b61137b565b005b6101c460048036038101906101bf9190614c68565b611c7c565b005b3480156101d257600080fd5b506101ed60048036038101906101e89190614cb1565b61285b565b005b3480156101fb57600080fd5b5061021660048036038101906102119190614c68565b612f1f565b6040516102239190614f54565b60405180910390f35b34801561023857600080fd5b50610253600480360381019061024e9190614fa2565b6133e5565b005b34801561026157600080fd5b5061027c60048036038101906102779190615025565b6138c2565b005b34801561028a57600080fd5b50610293613fd8565b6040516102a0919061471c565b60405180910390f35b6060600580548060200260200160405190810160405280929190818152602001828054801561032d57602002820191906000526020600020905b8160009054906101000a900473ffffffffffffffffffffffffffffffffffffffff1673ffffffffffffffffffffffffffffffffffffffff16815260200190600101908083116102e3575b5050505050905090565b81600a84604051610348919061511c565b908152602001604051809103902060000160006101000a81548173ffffffffffffffffffffffffffffffffffffffff021916908373ffffffffffffffffffffffffffffffffffffffff16021790555081600a846040516103a8919061511c565b908152602001604051809103902060050160006101000a81548173ffffffffffffffffffffffffffffffffffffffff021916908373ffffffffffffffffffffffffffffffffffffffff16021790555042600a84604051610408919061511c565b90815260200160405180910390206006018190555080600a8460405161042e919061511c565b9081526020016040518091039020600701908161044b919061533f565b506000600260008473ffffffffffffffffffffffffffffffffffffffff1673ffffffffffffffffffffffffffffffffffffffff168152602001908152602001600020905080600201849080600181540180825580915050600190039060005260206000200160009091909190915090816104c5919061533f565b50600a846040516104d6919061511c565b908152602001604051809103902081600301856040516104f6919061511c565b90815260200160405180910390206000820160009054906101000a900473ffffffffffffffffffffffffffffffffffffffff168160000160006101000a81548173ffffffffffffffffffffffffffffffffffffffff021916908373ffffffffffffffffffffffffffffffffffffffff1602179055506000820160149054906101000a900460ff168160000160146101000a81548160ff021916908360ff160217905550600182018160010190816105ad9190615427565b506002820160009054906101000a900461ffff168160020160006101000a81548161ffff021916908361ffff1602179055506002820160029054906101000a900461ffff168160020160026101000a81548161ffff021916908361ffff160217905550600382015481600301556004820160009054906101000a900473ffffffffffffffffffffffffffffffffffffffff168160040160006101000a81548173ffffffffffffffffffffffffffffffffffffffff021916908373ffffffffffffffffffffffffffffffffffffffff1602179055506005820160009054906101000a900473ffffffffffffffffffffffffffffffffffffffff168160050160006101000a81548173ffffffffffffffffffffffffffffffffffffffff021916908373ffffffffffffffffffffffffffffffffffffffff16021790555060068201548160060155600782018160070190816107069190615427565b506008820160009054906101000a900473ffffffffffffffffffffffffffffffffffffffff168160080160006101000a81548173ffffffffffffffffffffffffffffffffffffffff021916908373ffffffffffffffffffffffffffffffffffffffff16021790555060098201548160090155600a820160009054906101000a900473ffffffffffffffffffffffffffffffffffffffff1681600a0160006101000a81548173ffffffffffffffffffffffffffffffffffffffff021916908373ffffffffffffffffffffffffffffffffffffffff160217905550600b82015481600b0155600c820181600c019060036107ff9291906143c5565b50600d820181600d0190816108149190615427565b5090505042816003018560405161082b919061511c565b908152602001604051809103902060060181905550818160030185604051610853919061511c565b90815260200160405180910390206007019081610870919061533f565b506108bb6000803373ffffffffffffffffffffffffffffffffffffffff1673ffffffffffffffffffffffffffffffffffffffff16815260200190815260200160002060020185614066565b6000803373ffffffffffffffffffffffffffffffffffffffff1673ffffffffffffffffffffffffffffffffffffffff1681526020019081526020016000206003018460405161090a919061511c565b9081526020016040518091039020600080820160006101000a81549073ffffffffffffffffffffffffffffffffffffffff02191690556000820160146101000a81549060ff02191690556001820160006109649190614410565b6002820160006101000a81549061ffff02191690556002820160026101000a81549061ffff021916905560038201600090556004820160006101000a81549073ffffffffffffffffffffffffffffffffffffffff02191690556005820160006101000a81549073ffffffffffffffffffffffffffffffffffffffff021916905560068201600090556007820160006109fc9190614410565b6008820160006101000a81549073ffffffffffffffffffffffffffffffffffffffff02191690556009820160009055600a820160006101000a81549073ffffffffffffffffffffffffffffffffffffffff0219169055600b820160009055600c82016000610a6a9190614450565b600d82016000610a7a9190614410565b505050505050565b6060806000600660003373ffffffffffffffffffffffffffffffffffffffff1673ffffffffffffffffffffffffffffffffffffffff1681526020019081526020016000208054610ad190615162565b80601f0160208091040260200160405190810160405280929190818152602001828054610afd90615162565b8015610b4a5780601f10610b1f57610100808354040283529160200191610b4a565b820191906000526020600020905b815481529060010190602001808311610b2d57829003601f168201915b505050505090506000815103610b645781925050506112c4565b6040518060400160405280600481526020017f6661726d0000000000000000000000000000000000000000000000000000000081525080519060200120818051906020012003610d3a5760008060003373ffffffffffffffffffffffffffffffffffffffff1673ffffffffffffffffffffffffffffffffffffffff1681526020019081526020016000209050806002018054905067ffffffffffffffff811115610c1157610c1061476d565b5b604051908082528060200260200182016040528015610c4457816020015b6060815260200190600190039081610c2f5790505b50925060005b8160020180549050811015610d3357816002018181548110610c6f57610c6e61550f565b5b906000526020600020018054610c8490615162565b80601f0160208091040260200160405190810160405280929190818152602001828054610cb090615162565b8015610cfd5780601f10610cd257610100808354040283529160200191610cfd565b820191906000526020600020905b815481529060010190602001808311610ce057829003601f168201915b5050505050848281518110610d1557610d1461550f565b5b60200260200101819052508080610d2b9061556d565b915050610c4a565b50506112be565b6040518060400160405280600681526020017f63656e746572000000000000000000000000000000000000000000000000000081525080519060200120818051906020012003610f11576000600260003373ffffffffffffffffffffffffffffffffffffffff1673ffffffffffffffffffffffffffffffffffffffff1681526020019081526020016000209050806002018054905067ffffffffffffffff811115610de857610de761476d565b5b604051908082528060200260200182016040528015610e1b57816020015b6060815260200190600190039081610e065790505b50925060005b8160020180549050811015610f0a57816002018181548110610e4657610e4561550f565b5b906000526020600020018054610e5b90615162565b80601f0160208091040260200160405190810160405280929190818152602001828054610e8790615162565b8015610ed45780601f10610ea957610100808354040283529160200191610ed4565b820191906000526020600020905b815481529060010190602001808311610eb757829003601f168201915b5050505050848281518110610eec57610eeb61550f565b5b60200260200101819052508080610f029061556d565b915050610e21565b50506112bd565b6040518060400160405280600681526020017f72657461696c0000000000000000000000000000000000000000000000000000815250805190602001208180519060200120036110e8576000600460003373ffffffffffffffffffffffffffffffffffffffff1673ffffffffffffffffffffffffffffffffffffffff1681526020019081526020016000209050806002018054905067ffffffffffffffff811115610fbf57610fbe61476d565b5b604051908082528060200260200182016040528015610ff257816020015b6060815260200190600190039081610fdd5790505b50925060005b81600201805490508110156110e15781600201818154811061101d5761101c61550f565b5b90600052602060002001805461103290615162565b80601f016020809104026020016040519081016040528092919081815260200182805461105e90615162565b80156110ab5780601f10611080576101008083540402835291602001916110ab565b820191906000526020600020905b81548152906001019060200180831161108e57829003601f168201915b50505050508482815181106110c3576110c261550f565b5b602002602001018190525080806110d99061556d565b915050610ff8565b50506112bc565b6040518060400160405280600881526020017f637573746f6d6572000000000000000000000000000000000000000000000000815250805190602001208180519060200120036112bb576000600860003373ffffffffffffffffffffffffffffffffffffffff1673ffffffffffffffffffffffffffffffffffffffff1681526020019081526020016000209050806000018054905067ffffffffffffffff8111156111965761119561476d565b5b6040519080825280602002602001820160405280156111c957816020015b60608152602001906001900390816111b45790505b50925060005b81600001805490508110156112b8578160000181815481106111f4576111f361550f565b5b90600052602060002001805461120990615162565b80601f016020809104026020016040519081016040528092919081815260200182805461123590615162565b80156112825780601f1061125757610100808354040283529160200191611282565b820191906000526020600020905b81548152906001019060200180831161126557829003601f168201915b505050505084828151811061129a5761129961550f565b5b602002602001018190525080806112b09061556d565b9150506111cf565b50505b5b5b5b81925050505b90565b6060600380548060200260200160405190810160405280929190818152602001828054801561134b57602002820191906000526020600020905b8160009054906101000a900473ffffffffffffffffffffffffffffffffffffffff1673ffffffffffffffffffffffffffffffffffffffff1681526020019060010190808311611301575b5050505050905090565b600c60009054906101000a900473ffffffffffffffffffffffffffffffffffffffff1681565b6000600a8460405161138d919061511c565b908152602001604051809103902090508281600c019060036113b0929190614457565b508181600d0190816113c2919061533f565b5080600860003373ffffffffffffffffffffffffffffffffffffffff1673ffffffffffffffffffffffffffffffffffffffff16815260200190815260200160002060010185604051611414919061511c565b90815260200160405180910390206000820160009054906101000a900473ffffffffffffffffffffffffffffffffffffffff168160000160006101000a81548173ffffffffffffffffffffffffffffffffffffffff021916908373ffffffffffffffffffffffffffffffffffffffff1602179055506000820160149054906101000a900460ff168160000160146101000a81548160ff021916908360ff160217905550600182018160010190816114cb9190615427565b506002820160009054906101000a900461ffff168160020160006101000a81548161ffff021916908361ffff1602179055506002820160029054906101000a900461ffff168160020160026101000a81548161ffff021916908361ffff160217905550600382015481600301556004820160009054906101000a900473ffffffffffffffffffffffffffffffffffffffff168160040160006101000a81548173ffffffffffffffffffffffffffffffffffffffff021916908373ffffffffffffffffffffffffffffffffffffffff1602179055506005820160009054906101000a900473ffffffffffffffffffffffffffffffffffffffff168160050160006101000a81548173ffffffffffffffffffffffffffffffffffffffff021916908373ffffffffffffffffffffffffffffffffffffffff16021790555060068201548160060155600782018160070190816116249190615427565b506008820160009054906101000a900473ffffffffffffffffffffffffffffffffffffffff168160080160006101000a81548173ffffffffffffffffffffffffffffffffffffffff021916908373ffffffffffffffffffffffffffffffffffffffff16021790555060098201548160090155600a820160009054906101000a900473ffffffffffffffffffffffffffffffffffffffff1681600a0160006101000a81548173ffffffffffffffffffffffffffffffffffffffff021916908373ffffffffffffffffffffffffffffffffffffffff160217905550600b82015481600b0155600c820181600c0190600361171d9291906143c5565b50600d820181600d0190816117329190615427565b5090505080600a85604051611747919061511c565b90815260200160405180910390206000820160009054906101000a900473ffffffffffffffffffffffffffffffffffffffff168160000160006101000a81548173ffffffffffffffffffffffffffffffffffffffff021916908373ffffffffffffffffffffffffffffffffffffffff1602179055506000820160149054906101000a900460ff168160000160146101000a81548160ff021916908360ff160217905550600182018160010190816117fe9190615427565b506002820160009054906101000a900461ffff168160020160006101000a81548161ffff021916908361ffff1602179055506002820160029054906101000a900461ffff168160020160026101000a81548161ffff021916908361ffff160217905550600382015481600301556004820160009054906101000a900473ffffffffffffffffffffffffffffffffffffffff168160040160006101000a81548173ffffffffffffffffffffffffffffffffffffffff021916908373ffffffffffffffffffffffffffffffffffffffff1602179055506005820160009054906101000a900473ffffffffffffffffffffffffffffffffffffffff168160050160006101000a81548173ffffffffffffffffffffffffffffffffffffffff021916908373ffffffffffffffffffffffffffffffffffffffff16021790555060068201548160060155600782018160070190816119579190615427565b506008820160009054906101000a900473ffffffffffffffffffffffffffffffffffffffff168160080160006101000a81548173ffffffffffffffffffffffffffffffffffffffff021916908373ffffffffffffffffffffffffffffffffffffffff16021790555060098201548160090155600a820160009054906101000a900473ffffffffffffffffffffffffffffffffffffffff1681600a0160006101000a81548173ffffffffffffffffffffffffffffffffffffffff021916908373ffffffffffffffffffffffffffffffffffffffff160217905550600b82015481600b0155600c820181600c01906003611a509291906143c5565b50600d820181600d019081611a659190615427565b50905050600860003373ffffffffffffffffffffffffffffffffffffffff1673ffffffffffffffffffffffffffffffffffffffff16815260200190815260200160002060010184604051611ab9919061511c565b9081526020016040518091039020600080820160006101000a81549073ffffffffffffffffffffffffffffffffffffffff02191690556000820160146101000a81549060ff0219169055600182016000611b139190614410565b6002820160006101000a81549061ffff02191690556002820160026101000a81549061ffff021916905560038201600090556004820160006101000a81549073ffffffffffffffffffffffffffffffffffffffff02191690556005820160006101000a81549073ffffffffffffffffffffffffffffffffffffffff02191690556006820160009055600782016000611bab9190614410565b6008820160006101000a81549073ffffffffffffffffffffffffffffffffffffffff02191690556009820160009055600a820160006101000a81549073ffffffffffffffffffffffffffffffffffffffff0219169055600b820160009055600c82016000611c199190614450565b600d82016000611c299190614410565b5050611c76600860003373ffffffffffffffffffffffffffffffffffffffff1673ffffffffffffffffffffffffffffffffffffffff16815260200190815260200160002060000185614066565b50505050565b6000600a82604051611c8e919061511c565b908152602001604051809103902090506000600460008360080160009054906101000a900473ffffffffffffffffffffffffffffffffffffffff1673ffffffffffffffffffffffffffffffffffffffff1673ffffffffffffffffffffffffffffffffffffffff1681526020019081526020016000209050611d64336040518060400160405280600881526020017f637573746f6d657200000000000000000000000000000000000000000000000081525060405180602001604052806000815250604051806020016040528060008152506138c2565b338260000160006101000a81548173ffffffffffffffffffffffffffffffffffffffff021916908373ffffffffffffffffffffffffffffffffffffffff1602179055503382600a0160006101000a81548173ffffffffffffffffffffffffffffffffffffffff021916908373ffffffffffffffffffffffffffffffffffffffff1602179055504282600b018190555081600860003373ffffffffffffffffffffffffffffffffffffffff1673ffffffffffffffffffffffffffffffffffffffff16815260200190815260200160002060010184604051611e44919061511c565b90815260200160405180910390206000820160009054906101000a900473ffffffffffffffffffffffffffffffffffffffff168160000160006101000a81548173ffffffffffffffffffffffffffffffffffffffff021916908373ffffffffffffffffffffffffffffffffffffffff1602179055506000820160149054906101000a900460ff168160000160146101000a81548160ff021916908360ff16021790555060018201816001019081611efb9190615427565b506002820160009054906101000a900461ffff168160020160006101000a81548161ffff021916908361ffff1602179055506002820160029054906101000a900461ffff168160020160026101000a81548161ffff021916908361ffff160217905550600382015481600301556004820160009054906101000a900473ffffffffffffffffffffffffffffffffffffffff168160040160006101000a81548173ffffffffffffffffffffffffffffffffffffffff021916908373ffffffffffffffffffffffffffffffffffffffff1602179055506005820160009054906101000a900473ffffffffffffffffffffffffffffffffffffffff168160050160006101000a81548173ffffffffffffffffffffffffffffffffffffffff021916908373ffffffffffffffffffffffffffffffffffffffff16021790555060068201548160060155600782018160070190816120549190615427565b506008820160009054906101000a900473ffffffffffffffffffffffffffffffffffffffff168160080160006101000a81548173ffffffffffffffffffffffffffffffffffffffff021916908373ffffffffffffffffffffffffffffffffffffffff16021790555060098201548160090155600a820160009054906101000a900473ffffffffffffffffffffffffffffffffffffffff1681600a0160006101000a81548173ffffffffffffffffffffffffffffffffffffffff021916908373ffffffffffffffffffffffffffffffffffffffff160217905550600b82015481600b0155600c820181600c0190600361214d9291906143c5565b50600d820181600d0190816121629190615427565b50905050600860003373ffffffffffffffffffffffffffffffffffffffff1673ffffffffffffffffffffffffffffffffffffffff168152602001908152602001600020600001839080600181540180825580915050600190039060005260206000200160009091909190915090816121da919061533f565b5061224a600460008460080160009054906101000a900473ffffffffffffffffffffffffffffffffffffffff1673ffffffffffffffffffffffffffffffffffffffff1673ffffffffffffffffffffffffffffffffffffffff16815260200190815260200160002060020184614066565b806003018360405161225c919061511c565b9081526020016040518091039020600080820160006101000a81549073ffffffffffffffffffffffffffffffffffffffff02191690556000820160146101000a81549060ff02191690556001820160006122b69190614410565b6002820160006101000a81549061ffff02191690556002820160026101000a81549061ffff021916905560038201600090556004820160006101000a81549073ffffffffffffffffffffffffffffffffffffffff02191690556005820160006101000a81549073ffffffffffffffffffffffffffffffffffffffff0219169055600682016000905560078201600061234e9190614410565b6008820160006101000a81549073ffffffffffffffffffffffffffffffffffffffff02191690556009820160009055600a820160006101000a81549073ffffffffffffffffffffffffffffffffffffffff0219169055600b820160009055600c820160006123bc9190614450565b600d820160006123cc9190614410565b505081600a846040516123df919061511c565b90815260200160405180910390206000820160009054906101000a900473ffffffffffffffffffffffffffffffffffffffff168160000160006101000a81548173ffffffffffffffffffffffffffffffffffffffff021916908373ffffffffffffffffffffffffffffffffffffffff1602179055506000820160149054906101000a900460ff168160000160146101000a81548160ff021916908360ff160217905550600182018160010190816124969190615427565b506002820160009054906101000a900461ffff168160020160006101000a81548161ffff021916908361ffff1602179055506002820160029054906101000a900461ffff168160020160026101000a81548161ffff021916908361ffff160217905550600382015481600301556004820160009054906101000a900473ffffffffffffffffffffffffffffffffffffffff168160040160006101000a81548173ffffffffffffffffffffffffffffffffffffffff021916908373ffffffffffffffffffffffffffffffffffffffff1602179055506005820160009054906101000a900473ffffffffffffffffffffffffffffffffffffffff168160050160006101000a81548173ffffffffffffffffffffffffffffffffffffffff021916908373ffffffffffffffffffffffffffffffffffffffff16021790555060068201548160060155600782018160070190816125ef9190615427565b506008820160009054906101000a900473ffffffffffffffffffffffffffffffffffffffff168160080160006101000a81548173ffffffffffffffffffffffffffffffffffffffff021916908373ffffffffffffffffffffffffffffffffffffffff16021790555060098201548160090155600a820160009054906101000a900473ffffffffffffffffffffffffffffffffffffffff1681600a0160006101000a81548173ffffffffffffffffffffffffffffffffffffffff021916908373ffffffffffffffffffffffffffffffffffffffff160217905550600b82015481600b0155600c820181600c019060036126e89291906143c5565b50600d820181600d0190816126fd9190615427565b509050508160080160009054906101000a900473ffffffffffffffffffffffffffffffffffffffff16600c60006101000a81548173ffffffffffffffffffffffffffffffffffffffff021916908373ffffffffffffffffffffffffffffffffffffffff160217905550600c60009054906101000a900473ffffffffffffffffffffffffffffffffffffffff1673ffffffffffffffffffffffffffffffffffffffff166108fc349081150290604051600060405180830381858888f193505050501580156127ce573d6000803e3d6000fd5b508160020160009054906101000a900461ffff1661ffff16341115612856573373ffffffffffffffffffffffffffffffffffffffff166108fc8360020160009054906101000a900461ffff1661ffff163461282991906155b5565b9081150290604051600060405180830381858888f19350505050158015612854573d6000803e3d6000fd5b505b505050565b80600a8360405161286c919061511c565b908152602001604051809103902060000160006101000a81548173ffffffffffffffffffffffffffffffffffffffff021916908373ffffffffffffffffffffffffffffffffffffffff16021790555080600a836040516128cc919061511c565b908152602001604051809103902060080160006101000a81548173ffffffffffffffffffffffffffffffffffffffff021916908373ffffffffffffffffffffffffffffffffffffffff16021790555042600a8360405161292c919061511c565b9081526020016040518091039020600901819055506000600460008373ffffffffffffffffffffffffffffffffffffffff1673ffffffffffffffffffffffffffffffffffffffff168152602001908152602001600020905080600201839080600181540180825580915050600190039060005260206000200160009091909190915090816129ba919061533f565b50600a836040516129cb919061511c565b908152602001604051809103902081600301846040516129eb919061511c565b90815260200160405180910390206000820160009054906101000a900473ffffffffffffffffffffffffffffffffffffffff168160000160006101000a81548173ffffffffffffffffffffffffffffffffffffffff021916908373ffffffffffffffffffffffffffffffffffffffff1602179055506000820160149054906101000a900460ff168160000160146101000a81548160ff021916908360ff16021790555060018201816001019081612aa29190615427565b506002820160009054906101000a900461ffff168160020160006101000a81548161ffff021916908361ffff1602179055506002820160029054906101000a900461ffff168160020160026101000a81548161ffff021916908361ffff160217905550600382015481600301556004820160009054906101000a900473ffffffffffffffffffffffffffffffffffffffff168160040160006101000a81548173ffffffffffffffffffffffffffffffffffffffff021916908373ffffffffffffffffffffffffffffffffffffffff1602179055506005820160009054906101000a900473ffffffffffffffffffffffffffffffffffffffff168160050160006101000a81548173ffffffffffffffffffffffffffffffffffffffff021916908373ffffffffffffffffffffffffffffffffffffffff1602179055506006820154816006015560078201816007019081612bfb9190615427565b506008820160009054906101000a900473ffffffffffffffffffffffffffffffffffffffff168160080160006101000a81548173ffffffffffffffffffffffffffffffffffffffff021916908373ffffffffffffffffffffffffffffffffffffffff16021790555060098201548160090155600a820160009054906101000a900473ffffffffffffffffffffffffffffffffffffffff1681600a0160006101000a81548173ffffffffffffffffffffffffffffffffffffffff021916908373ffffffffffffffffffffffffffffffffffffffff160217905550600b82015481600b0155600c820181600c01906003612cf49291906143c5565b50600d820181600d019081612d099190615427565b50905050612d58600260003373ffffffffffffffffffffffffffffffffffffffff1673ffffffffffffffffffffffffffffffffffffffff16815260200190815260200160002060020184614066565b600260003373ffffffffffffffffffffffffffffffffffffffff1673ffffffffffffffffffffffffffffffffffffffff16815260200190815260200160002060030183604051612da8919061511c565b9081526020016040518091039020600080820160006101000a81549073ffffffffffffffffffffffffffffffffffffffff02191690556000820160146101000a81549060ff0219169055600182016000612e029190614410565b6002820160006101000a81549061ffff02191690556002820160026101000a81549061ffff021916905560038201600090556004820160006101000a81549073ffffffffffffffffffffffffffffffffffffffff02191690556005820160006101000a81549073ffffffffffffffffffffffffffffffffffffffff02191690556006820160009055600782016000612e9a9190614410565b6008820160006101000a81549073ffffffffffffffffffffffffffffffffffffffff02191690556009820160009055600a820160006101000a81549073ffffffffffffffffffffffffffffffffffffffff0219169055600b820160009055600c82016000612f089190614450565b600d82016000612f189190614410565b5050505050565b612f276144f1565b612f308261419c565b612f6f576040517f08c379a0000000000000000000000000000000000000000000000000000000008152600401612f6690615646565b60405180910390fd5b6000612f7a83614216565b604051806102000160405290816000820160009054906101000a900473ffffffffffffffffffffffffffffffffffffffff1673ffffffffffffffffffffffffffffffffffffffff1673ffffffffffffffffffffffffffffffffffffffff1681526020016000820160149054906101000a900460ff1660ff1660ff16815260200160018201805461300990615162565b80601f016020809104026020016040519081016040528092919081815260200182805461303590615162565b80156130825780601f1061305757610100808354040283529160200191613082565b820191906000526020600020905b81548152906001019060200180831161306557829003601f168201915b505050505081526020016002820160009054906101000a900461ffff1661ffff1661ffff1681526020016002820160029054906101000a900461ffff1661ffff1661ffff168152602001600382015481526020016004820160009054906101000a900473ffffffffffffffffffffffffffffffffffffffff1673ffffffffffffffffffffffffffffffffffffffff1673ffffffffffffffffffffffffffffffffffffffff1681526020016005820160009054906101000a900473ffffffffffffffffffffffffffffffffffffffff1673ffffffffffffffffffffffffffffffffffffffff1673ffffffffffffffffffffffffffffffffffffffff1681526020016006820154815260200160078201805461319b90615162565b80601f01602080910402602001604051908101604052809291908181526020018280546131c790615162565b80156132145780601f106131e957610100808354040283529160200191613214565b820191906000526020600020905b8154815290600101906020018083116131f757829003601f168201915b505050505081526020016008820160009054906101000a900473ffffffffffffffffffffffffffffffffffffffff1673ffffffffffffffffffffffffffffffffffffffff1673ffffffffffffffffffffffffffffffffffffffff16815260200160098201548152602001600a820160009054906101000a900473ffffffffffffffffffffffffffffffffffffffff1673ffffffffffffffffffffffffffffffffffffffff1673ffffffffffffffffffffffffffffffffffffffff168152602001600b8201548152602001600c820160038060200260405190810160405280929190826003801561333f576020028201916000905b82829054906101000a900460ff1660ff16815260200190600101906020826000010492830192600103820291508084116133085790505b50505050508152602001600d8201805461335890615162565b80601f016020809104026020016040519081016040528092919081815260200182805461338490615162565b80156133d15780601f106133a6576101008083540402835291602001916133d1565b820191906000526020600020905b8154815290600101906020018083116133b457829003601f168201915b505050505081525050905080915050919050565b60006133f2600d5461423d565b604051602001613402919061568c565b604051602081830303815290604052905060006040518061020001604052803373ffffffffffffffffffffffffffffffffffffffff1681526020018760ff1681526020018681526020018461ffff1681526020018561ffff1681526020014281526020013373ffffffffffffffffffffffffffffffffffffffff168152602001600073ffffffffffffffffffffffffffffffffffffffff16815260200160008152602001604051806020016040528060008152508152602001600073ffffffffffffffffffffffffffffffffffffffff16815260200160008152602001600073ffffffffffffffffffffffffffffffffffffffff168152602001600081526020016040518060600160405280600060ff168152602001600060ff168152602001600060ff168152508152602001604051806020016040528060008152508152509050806000803373ffffffffffffffffffffffffffffffffffffffff1673ffffffffffffffffffffffffffffffffffffffff16815260200190815260200160002060030183604051613594919061511c565b908152602001604051809103902060008201518160000160006101000a81548173ffffffffffffffffffffffffffffffffffffffff021916908373ffffffffffffffffffffffffffffffffffffffff16021790555060208201518160000160146101000a81548160ff021916908360ff160217905550604082015181600101908161361f919061533f565b5060608201518160020160006101000a81548161ffff021916908361ffff16021790555060808201518160020160026101000a81548161ffff021916908361ffff16021790555060a0820151816003015560c08201518160040160006101000a81548173ffffffffffffffffffffffffffffffffffffffff021916908373ffffffffffffffffffffffffffffffffffffffff16021790555060e08201518160050160006101000a81548173ffffffffffffffffffffffffffffffffffffffff021916908373ffffffffffffffffffffffffffffffffffffffff160217905550610100820151816006015561012082015181600701908161371f919061533f565b506101408201518160080160006101000a81548173ffffffffffffffffffffffffffffffffffffffff021916908373ffffffffffffffffffffffffffffffffffffffff160217905550610160820151816009015561018082015181600a0160006101000a81548173ffffffffffffffffffffffffffffffffffffffff021916908373ffffffffffffffffffffffffffffffffffffffff1602179055506101a082015181600b01556101c082015181600c019060036137de929190614457565b506101e082015181600d0190816137f5919061533f565b509050506000803373ffffffffffffffffffffffffffffffffffffffff1673ffffffffffffffffffffffffffffffffffffffff1681526020019081526020016000206002018290806001815401808255809150506001900390600052602060002001600090919091909150908161386c919061533f565b50600b829080600181540180825580915050600190039060005260206000200160009091909190915090816138a1919061533f565b50600d60008154809291906138b59061556d565b9190505550505050505050565b6040518060400160405280600481526020017f6661726d0000000000000000000000000000000000000000000000000000000081525080519060200120838051906020012003613a94576040518060400160405280600481526020017f6661726d00000000000000000000000000000000000000000000000000000000815250600660008673ffffffffffffffffffffffffffffffffffffffff1673ffffffffffffffffffffffffffffffffffffffff168152602001908152602001600020908161398d919061533f565b506001849080600181540180825580915050600190039060005260206000200160009091909190916101000a81548173ffffffffffffffffffffffffffffffffffffffff021916908373ffffffffffffffffffffffffffffffffffffffff160217905550816000808673ffffffffffffffffffffffffffffffffffffffff1673ffffffffffffffffffffffffffffffffffffffff1681526020019081526020016000206000019081613a3f919061533f565b50806000808673ffffffffffffffffffffffffffffffffffffffff1673ffffffffffffffffffffffffffffffffffffffff1681526020019081526020016000206001019081613a8e919061533f565b50613f6f565b6040518060400160405280600681526020017f63656e746572000000000000000000000000000000000000000000000000000081525080519060200120838051906020012003613c68576040518060400160405280600681526020017f63656e7465720000000000000000000000000000000000000000000000000000815250600660008673ffffffffffffffffffffffffffffffffffffffff1673ffffffffffffffffffffffffffffffffffffffff1681526020019081526020016000209081613b5f919061533f565b506003849080600181540180825580915050600190039060005260206000200160009091909190916101000a81548173ffffffffffffffffffffffffffffffffffffffff021916908373ffffffffffffffffffffffffffffffffffffffff16021790555081600260008673ffffffffffffffffffffffffffffffffffffffff1673ffffffffffffffffffffffffffffffffffffffff1681526020019081526020016000206000019081613c12919061533f565b5080600260008673ffffffffffffffffffffffffffffffffffffffff1673ffffffffffffffffffffffffffffffffffffffff1681526020019081526020016000206001019081613c62919061533f565b50613f6e565b6040518060400160405280600681526020017f72657461696c000000000000000000000000000000000000000000000000000081525080519060200120838051906020012003613e3c576040518060400160405280600681526020017f72657461696c0000000000000000000000000000000000000000000000000000815250600660008673ffffffffffffffffffffffffffffffffffffffff1673ffffffffffffffffffffffffffffffffffffffff1681526020019081526020016000209081613d33919061533f565b506005849080600181540180825580915050600190039060005260206000200160009091909190916101000a81548173ffffffffffffffffffffffffffffffffffffffff021916908373ffffffffffffffffffffffffffffffffffffffff16021790555081600460008673ffffffffffffffffffffffffffffffffffffffff1673ffffffffffffffffffffffffffffffffffffffff1681526020019081526020016000206000019081613de6919061533f565b5080600460008673ffffffffffffffffffffffffffffffffffffffff1673ffffffffffffffffffffffffffffffffffffffff1681526020019081526020016000206001019081613e36919061533f565b50613f6d565b6040518060400160405280600881526020017f637573746f6d657200000000000000000000000000000000000000000000000081525080519060200120838051906020012003613f6c576040518060400160405280600881526020017f637573746f6d6572000000000000000000000000000000000000000000000000815250600660008673ffffffffffffffffffffffffffffffffffffffff1673ffffffffffffffffffffffffffffffffffffffff1681526020019081526020016000209081613f07919061533f565b506009849080600181540180825580915050600190039060005260206000200160009091909190916101000a81548173ffffffffffffffffffffffffffffffffffffffff021916908373ffffffffffffffffffffffffffffffffffffffff1602179055505b5b5b5b6007849080600181540180825580915050600190039060005260206000200160009091909190916101000a81548173ffffffffffffffffffffffffffffffffffffffff021916908373ffffffffffffffffffffffffffffffffffffffff16021790555050505050565b6060600180548060200260200160405190810160405280929190818152602001828054801561405c57602002820191906000526020600020905b8160009054906101000a900473ffffffffffffffffffffffffffffffffffffffff1673ffffffffffffffffffffffffffffffffffffffff1681526020019060010190808311614012575b5050505050905090565b6000806000905060005b84805490508110156140da5783805190602001208582815481106140975761409661550f565b5b906000526020600020016040516140ae9190615755565b6040518091039020036140c757809250600191506140da565b80806140d29061556d565b915050614070565b5080156141965760008290505b600185805490506140f891906155b5565b811015614165578460018261410d919061576c565b8154811061411e5761411d61550f565b5b9060005260206000200185828154811061413b5761413a61550f565b5b90600052602060002001908161415191906157cb565b50808061415d9061556d565b9150506140e7565b5083805480614177576141766158b3565b5b6001900381819060005260206000200160006141939190614410565b90555b50505050565b60008073ffffffffffffffffffffffffffffffffffffffff16600a836040516141c5919061511c565b908152602001604051809103902060000160009054906101000a900473ffffffffffffffffffffffffffffffffffffffff1673ffffffffffffffffffffffffffffffffffffffff1614159050919050565b6000600a82604051614228919061511c565b90815260200160405180910390209050919050565b606060008203614284576040518060400160405280600181526020017f300000000000000000000000000000000000000000000000000000000000000081525090506143c0565b600082905060005b600082146142b657808061429f9061556d565b915050600a826142af9190615911565b915061428c565b60008167ffffffffffffffff8111156142d2576142d161476d565b5b6040519080825280601f01601f1916602001820160405280156143045781602001600182028036833780820191505090505b50905060008290505b600086146143b85760018161432291906155b5565b90506000600a80886143349190615911565b61433e9190615942565b8761434991906155b5565b60306143559190615984565b905060008160f81b9050808484815181106143735761437261550f565b5b60200101907effffffffffffffffffffffffffffffffffffffffffffffffffffffffffffff1916908160001a905350600a886143af9190615911565b9750505061430d565b819450505050505b919050565b826003601f016020900481019282156143ff5791601f016020900482015b828111156143fe5782548255916001019190600101906143e3565b5b50905061440c91906145ed565b5090565b50805461441c90615162565b6000825580601f1061442e575061444d565b601f01602090049060005260206000209081019061444c91906145ed565b5b50565b5060009055565b826003601f016020900481019282156144e05791602002820160005b838211156144b157835183826101000a81548160ff021916908360ff1602179055509260200192600101602081600001049283019260010302614473565b80156144de5782816101000a81549060ff02191690556001016020816000010492830192600103026144b1565b505b5090506144ed91906145ed565b5090565b604051806102000160405280600073ffffffffffffffffffffffffffffffffffffffff168152602001600060ff16815260200160608152602001600061ffff168152602001600061ffff16815260200160008152602001600073ffffffffffffffffffffffffffffffffffffffff168152602001600073ffffffffffffffffffffffffffffffffffffffff1681526020016000815260200160608152602001600073ffffffffffffffffffffffffffffffffffffffff16815260200160008152602001600073ffffffffffffffffffffffffffffffffffffffff168152602001600081526020016145e061460a565b8152602001606081525090565b5b808211156146065760008160009055506001016145ee565b5090565b6040518060600160405280600390602082028036833780820191505090505090565b600081519050919050565b600082825260208201905092915050565b6000819050602082019050919050565b600073ffffffffffffffffffffffffffffffffffffffff82169050919050565b600061468382614658565b9050919050565b61469381614678565b82525050565b60006146a5838361468a565b60208301905092915050565b6000602082019050919050565b60006146c98261462c565b6146d38185614637565b93506146de83614648565b8060005b8381101561470f5781516146f68882614699565b9750614701836146b1565b9250506001810190506146e2565b5085935050505092915050565b6000602082019050818103600083015261473681846146be565b905092915050565b6000604051905090565b600080fd5b600080fd5b600080fd5b600080fd5b6000601f19601f8301169050919050565b7f4e487b7100000000000000000000000000000000000000000000000000000000600052604160045260246000fd5b6147a58261475c565b810181811067ffffffffffffffff821117156147c4576147c361476d565b5b80604052505050565b60006147d761473e565b90506147e3828261479c565b919050565b600067ffffffffffffffff8211156148035761480261476d565b5b61480c8261475c565b9050602081019050919050565b82818337600083830152505050565b600061483b614836846147e8565b6147cd565b90508281526020810184848401111561485757614856614757565b5b614862848285614819565b509392505050565b600082601f83011261487f5761487e614752565b5b813561488f848260208601614828565b91505092915050565b6148a181614678565b81146148ac57600080fd5b50565b6000813590506148be81614898565b92915050565b6000806000606084860312156148dd576148dc614748565b5b600084013567ffffffffffffffff8111156148fb576148fa61474d565b5b6149078682870161486a565b9350506020614918868287016148af565b925050604084013567ffffffffffffffff8111156149395761493861474d565b5b6149458682870161486a565b9150509250925092565b600081519050919050565b600082825260208201905092915050565b6000819050602082019050919050565b600081519050919050565b600082825260208201905092915050565b60005b838110156149b557808201518184015260208101905061499a565b60008484015250505050565b60006149cc8261497b565b6149d68185614986565b93506149e6818560208601614997565b6149ef8161475c565b840191505092915050565b6000614a0683836149c1565b905092915050565b6000602082019050919050565b6000614a268261494f565b614a30818561495a565b935083602082028501614a428561496b565b8060005b85811015614a7e5784840389528151614a5f85826149fa565b9450614a6a83614a0e565b925060208a01995050600181019050614a46565b50829750879550505050505092915050565b60006020820190508181036000830152614aaa8184614a1b565b905092915050565b6000614abd82614658565b9050919050565b614acd81614ab2565b82525050565b6000602082019050614ae86000830184614ac4565b92915050565b600067ffffffffffffffff821115614b0957614b0861476d565b5b602082029050919050565b600080fd5b600060ff82169050919050565b614b2f81614b19565b8114614b3a57600080fd5b50565b600081359050614b4c81614b26565b92915050565b6000614b65614b6084614aee565b6147cd565b90508060208402830185811115614b7f57614b7e614b14565b5b835b81811015614ba85780614b948882614b3d565b845260208401935050602081019050614b81565b5050509392505050565b600082601f830112614bc757614bc6614752565b5b6003614bd4848285614b52565b91505092915050565b600080600060a08486031215614bf657614bf5614748565b5b600084013567ffffffffffffffff811115614c1457614c1361474d565b5b614c208682870161486a565b9350506020614c3186828701614bb2565b925050608084013567ffffffffffffffff811115614c5257614c5161474d565b5b614c5e8682870161486a565b9150509250925092565b600060208284031215614c7e57614c7d614748565b5b600082013567ffffffffffffffff811115614c9c57614c9b61474d565b5b614ca88482850161486a565b91505092915050565b60008060408385031215614cc857614cc7614748565b5b600083013567ffffffffffffffff811115614ce657614ce561474d565b5b614cf28582860161486a565b9250506020614d03858286016148af565b9150509250929050565b614d1681614b19565b82525050565b600061ffff82169050919050565b614d3381614d1c565b82525050565b6000819050919050565b614d4c81614d39565b82525050565b600060039050919050565b600081905092915050565b6000819050919050565b6000614d7e8383614d0d565b60208301905092915050565b6000602082019050919050565b614da081614d52565b614daa8184614d5d565b9250614db582614d68565b8060005b83811015614de6578151614dcd8782614d72565b9650614dd883614d8a565b925050600181019050614db9565b505050505050565b600061024083016000830151614e07600086018261468a565b506020830151614e1a6020860182614d0d565b5060408301518482036040860152614e3282826149c1565b9150506060830151614e476060860182614d2a565b506080830151614e5a6080860182614d2a565b5060a0830151614e6d60a0860182614d43565b5060c0830151614e8060c086018261468a565b5060e0830151614e9360e086018261468a565b50610100830151614ea8610100860182614d43565b50610120830151848203610120860152614ec282826149c1565b915050610140830151614ed961014086018261468a565b50610160830151614eee610160860182614d43565b50610180830151614f0361018086018261468a565b506101a0830151614f186101a0860182614d43565b506101c0830151614f2d6101c0860182614d97565b506101e0830151848203610220860152614f4782826149c1565b9150508091505092915050565b60006020820190508181036000830152614f6e8184614dee565b905092915050565b614f7f81614d1c565b8114614f8a57600080fd5b50565b600081359050614f9c81614f76565b92915050565b60008060008060808587031215614fbc57614fbb614748565b5b6000614fca87828801614b3d565b945050602085013567ffffffffffffffff811115614feb57614fea61474d565b5b614ff78782880161486a565b935050604061500887828801614f8d565b925050606061501987828801614f8d565b91505092959194509250565b6000806000806080858703121561503f5761503e614748565b5b600061504d878288016148af565b945050602085013567ffffffffffffffff81111561506e5761506d61474d565b5b61507a8782880161486a565b935050604085013567ffffffffffffffff81111561509b5761509a61474d565b5b6150a78782880161486a565b925050606085013567ffffffffffffffff8111156150c8576150c761474d565b5b6150d48782880161486a565b91505092959194509250565b600081905092915050565b60006150f68261497b565b61510081856150e0565b9350615110818560208601614997565b80840191505092915050565b600061512882846150eb565b915081905092915050565b7f4e487b7100000000000000000000000000000000000000000000000000000000600052602260045260246000fd5b6000600282049050600182168061517a57607f821691505b60208210810361518d5761518c615133565b5b50919050565b60008190508160005260206000209050919050565b60006020601f8301049050919050565b600082821b905092915050565b6000600883026151f57fffffffffffffffffffffffffffffffffffffffffffffffffffffffffffffffff826151b8565b6151ff86836151b8565b95508019841693508086168417925050509392505050565b6000819050919050565b600061523c61523761523284614d39565b615217565b614d39565b9050919050565b6000819050919050565b61525683615221565b61526a61526282615243565b8484546151c5565b825550505050565b600090565b61527f615272565b61528a81848461524d565b505050565b5b818110156152ae576152a3600082615277565b600181019050615290565b5050565b601f8211156152f3576152c481615193565b6152cd846151a8565b810160208510156152dc578190505b6152f06152e8856151a8565b83018261528f565b50505b505050565b600082821c905092915050565b6000615316600019846008026152f8565b1980831691505092915050565b600061532f8383615305565b9150826002028217905092915050565b6153488261497b565b67ffffffffffffffff8111156153615761536061476d565b5b61536b8254615162565b6153768282856152b2565b600060209050601f8311600181146153a95760008415615397578287015190505b6153a18582615323565b865550615409565b601f1984166153b786615193565b60005b828110156153df578489015182556001820191506020850194506020810190506153ba565b868310156153fc57848901516153f8601f891682615305565b8355505b6001600288020188555050505b505050505050565b60008154905061542081615162565b9050919050565b81810361543557505061550d565b61543e82615411565b67ffffffffffffffff8111156154575761545661476d565b5b6154618254615162565b61546c8282856152b2565b6000601f83116001811461549b5760008415615489578287015490505b6154938582615323565b865550615506565b601f1984166154a987615193565b96506154b486615193565b60005b828110156154dc578489015482556001820191506001850194506020810190506154b7565b868310156154f957848901546154f5601f891682615305565b8355505b6001600288020188555050505b5050505050505b565b7f4e487b7100000000000000000000000000000000000000000000000000000000600052603260045260246000fd5b7f4e487b7100000000000000000000000000000000000000000000000000000000600052601160045260246000fd5b600061557882614d39565b91507fffffffffffffffffffffffffffffffffffffffffffffffffffffffffffffffff82036155aa576155a961553e565b5b600182019050919050565b60006155c082614d39565b91506155cb83614d39565b92508282039050818111156155e3576155e261553e565b5b92915050565b600082825260208201905092915050565b7f44757269616e20646f6573206e6f742065786973740000000000000000000000600082015250565b60006156306015836155e9565b915061563b826155fa565b602082019050919050565b6000602082019050818103600083015261565f81615623565b9050919050565b7f4400000000000000000000000000000000000000000000000000000000000000815250565b600061569782615666565b6001820191506156a782846150eb565b915081905092915050565b600081905092915050565b60008190508160005260206000209050919050565b600081546156df81615162565b6156e981866156b2565b9450600182166000811461570457600181146157195761574c565b60ff198316865281151582028601935061574c565b615722856156bd565b60005b8381101561574457815481890152600182019150602081019050615725565b838801955050505b50505092915050565b600061576182846156d2565b915081905092915050565b600061577782614d39565b915061578283614d39565b925082820190508082111561579a5761579961553e565b5b92915050565b6000815490506157af81615162565b9050919050565b60008190508160005260206000209050919050565b8181036157d95750506158b1565b6157e2826157a0565b67ffffffffffffffff8111156157fb576157fa61476d565b5b6158058254615162565b6158108282856152b2565b6000601f83116001811461583f576000841561582d578287015490505b6158378582615323565b8655506158aa565b601f19841661584d876157b6565b965061585886615193565b60005b828110156158805784890154825560018201915060018501945060208101905061585b565b8683101561589d5784890154615899601f891682615305565b8355505b6001600288020188555050505b5050505050505b565b7f4e487b7100000000000000000000000000000000000000000000000000000000600052603160045260246000fd5b7f4e487b7100000000000000000000000000000000000000000000000000000000600052601260045260246000fd5b600061591c82614d39565b915061592783614d39565b925082615937576159366158e2565b5b828204905092915050565b600061594d82614d39565b915061595883614d39565b925082820261596681614d39565b9150828204841483151761597d5761597c61553e565b5b5092915050565b600061598f82614b19565b915061599a83614b19565b9250828201905060ff8111156159b3576159b261553e565b5b9291505056fea2646970667358221220dacc5da6761f83f9dde9fdc47a5e238a1a19ae60e5642b96fa158d3c9188dd9964736f6c63430008130033",
  "immutableReferences": {},
  "source": "//SPDX-License-Identifier: MIT\r\npragma solidity ^0.8.0;\r\n\r\n//import \"hardhat/console.sol\";\r\n\r\ncontract DurianSupplyChain {\r\n    struct Durian {\r\n        //Owner\r\n        address owner;\r\n        //Format : D0001\r\n        //string durianid;\r\n        uint8 tree;\r\n        string types;\r\n        uint16 price;\r\n        //Gram\r\n        uint16 weight;\r\n        uint256 harvestDate;\r\n        //string state;\r\n        //Farm\r\n        address farmid;\r\n        //Distribution Center\r\n        //Format : C0001\r\n        address centerid;\r\n        uint256 distributeDate;\r\n        string deliveryMethod;\r\n        //Retailer\r\n        address retailer;\r\n        uint256 retailDate;\r\n        //Consumer\r\n        address customer;\r\n        uint256 soldDate;\r\n        //(taste, fragrance, creaminess)\r\n        uint8[3] ratings;\r\n        string comment;\r\n    }\r\n\r\n    struct Farm {\r\n        string name;\r\n        string location;\r\n        string[] durian;\r\n        mapping(string => Durian) durianInHand;\r\n    }\r\n\r\n    struct Center {\r\n        string name;\r\n        string location;\r\n        string[] durian;\r\n        mapping(string => Durian) durianInHand;\r\n    }\r\n\r\n    struct Retail {\r\n        string name;\r\n        string location;\r\n        string[] durian;\r\n        mapping(string => Durian) durianInHand;\r\n    }\r\n\r\n    struct Customer {\r\n        string[] durian;\r\n        mapping(string => Durian) durianInHand;\r\n    }\r\n\r\n    //participants[] allParticipant;\r\n    mapping(address => Farm) farmAll;\r\n    address[] farmSize;\r\n    mapping(address => Center) centerAll;\r\n    address[] centerSize;\r\n    mapping(address => Retail) retailAll;\r\n    address[] retailSize;\r\n    //String = Part(farm/center/retail)\r\n    mapping(address => string) participantsAll;\r\n    address[] ParticipantSize;\r\n    mapping(address => Customer) customerAll;\r\n    address[] customerSize;\r\n    mapping(string => Durian) durianAll;\r\n    string[] durianSize;\r\n\r\n    address payable public buyer;\r\n\r\n    uint256 durianN = 1;\r\n\r\n    function durianExists(string memory _id) internal view returns (bool) {\r\n        return durianAll[_id].owner != address(0);\r\n    }\r\n\r\n    function durianExistsInHand(string memory _id)\r\n        internal\r\n        view\r\n        returns (bool)\r\n    {\r\n        if (farmAll[msg.sender].durianInHand[_id].tree != 0) {\r\n            return true;\r\n        } else if (centerAll[msg.sender].durianInHand[_id].tree != 0) {\r\n            return true;\r\n        } else if (retailAll[msg.sender].durianInHand[_id].tree != 0) {\r\n            return true;\r\n        } else if (customerAll[msg.sender].durianInHand[_id].tree != 0) {\r\n            return true;\r\n        }\r\n\r\n        return false;\r\n    }\r\n\r\n    function addParticipant(\r\n        address _add,\r\n        string memory _part,\r\n        string memory _name,\r\n        string memory _loc\r\n    ) public {\r\n        //require(!addressExists(_add), \"Address exist in participant\");\r\n        // require(\r\n        //     keccak256(bytes(_part)) == keccak256(bytes(\"farm\")) ||\r\n        //         keccak256(bytes(_part)) == keccak256(bytes(\"center\")) ||\r\n        //         keccak256(bytes(_part)) == keccak256(bytes(\"retail\")),\r\n        //     \"Invalid participant type\"\r\n        // );\r\n        if (keccak256(bytes(_part)) == keccak256(bytes(\"farm\"))) {\r\n            participantsAll[_add] = \"farm\";\r\n            farmSize.push(_add);\r\n            farmAll[_add].name = _name;\r\n            farmAll[_add].location = _loc;\r\n            //console.log(\"Farm Added\");\r\n        } else if (keccak256(bytes(_part)) == keccak256(bytes(\"center\"))) {\r\n            participantsAll[_add] = \"center\";\r\n            centerSize.push(_add);\r\n            centerAll[_add].name = _name;\r\n            centerAll[_add].location = _loc;\r\n            //console.log(\"Center Added\");\r\n        } else if (keccak256(bytes(_part)) == keccak256(bytes(\"retail\"))) {\r\n            participantsAll[_add] = \"retail\";\r\n            retailSize.push(_add);\r\n            retailAll[_add].name = _name;\r\n            retailAll[_add].location = _loc;\r\n            //console.log(\"Retail Added\");\r\n        } else if (keccak256(bytes(_part)) == keccak256(bytes(\"customer\"))) {\r\n            participantsAll[_add] = \"customer\";\r\n            customerSize.push(_add);\r\n            //console.log(\"Customer Added\");\r\n        }\r\n        ParticipantSize.push(_add);\r\n        //console.log(\"Participant Added\");\r\n    }\r\n\r\n    function getAllFarms() public view returns (address[] memory) {\r\n        return farmSize;\r\n    }\r\n\r\n    function getAllCenter() public view returns (address[] memory) {\r\n        return centerSize;\r\n    }\r\n\r\n    function getAllRetailer() public view returns (address[] memory) {\r\n        return retailSize;\r\n    }\r\n\r\n    function harvestDurian(\r\n        uint8 _tree,\r\n        string memory _types,\r\n        uint16 _weight,\r\n        uint16 _price\r\n    ) public {\r\n        ////console.log(\"Harvesting ......\");\r\n        //require(addressExists(msg.sender));\r\n        string memory newid = string.concat(\"D\", (uint2str(durianN)));\r\n\r\n        ////console.log(\"New Durian ID: %s\", newid);\r\n        ////console.log(\"Block timestamp: %s\", block.timestamp);\r\n        ////console.log(\"Farmer address: %s\", msg.sender);\r\n        Durian memory d = Durian({\r\n            owner: msg.sender,\r\n            //durianid: newid,\r\n            tree: _tree,\r\n            types: _types,\r\n            price: _price,\r\n            weight: _weight,\r\n            harvestDate: block.timestamp,\r\n            //state: \"harvested\",\r\n            farmid: msg.sender,\r\n            centerid: address(0),\r\n            distributeDate: 0,\r\n            deliveryMethod: \"\",\r\n            retailer: address(0),\r\n            retailDate: 0,\r\n            customer: address(0),\r\n            soldDate: 0,\r\n            ratings: [0, 0, 0],\r\n            comment: \"\"\r\n        });\r\n        farmAll[msg.sender].durianInHand[newid] = d;\r\n        farmAll[msg.sender].durian.push(newid);\r\n        durianSize.push(newid);\r\n        durianN++;\r\n        ////console.log(\"New durian count: %s\", durianN);\r\n    }\r\n\r\n    function getAllDuriansByAddress() public view returns (string[] memory) {\r\n        string[] memory result;\r\n        string memory participantType = participantsAll[msg.sender];\r\n\r\n        if (bytes(participantType).length == 0) {\r\n            // If the participant type is unknown, return an empty array\r\n            return result;\r\n        } else if (\r\n            keccak256(bytes(participantType)) == keccak256(bytes(\"farm\"))\r\n        ) {\r\n            // If the participant is a farm, return the list of durians in the farm\r\n            Farm storage farm = farmAll[msg.sender];\r\n            result = new string[](farm.durian.length);\r\n            for (uint256 i = 0; i < farm.durian.length; i++) {\r\n                result[i] = farm.durian[i];\r\n            }\r\n        } else if (\r\n            keccak256(bytes(participantType)) == keccak256(bytes(\"center\"))\r\n        ) {\r\n            // If the participant is a distribution center, return the list of durians in the center\r\n            Center storage center = centerAll[msg.sender];\r\n            result = new string[](center.durian.length);\r\n            for (uint256 i = 0; i < center.durian.length; i++) {\r\n                result[i] = center.durian[i];\r\n            }\r\n        } else if (\r\n            keccak256(bytes(participantType)) == keccak256(bytes(\"retail\"))\r\n        ) {\r\n            // If the participant is a retailer, return the list of durians in the retailer\r\n            Retail storage retail = retailAll[msg.sender];\r\n            result = new string[](retail.durian.length);\r\n            for (uint256 i = 0; i < retail.durian.length; i++) {\r\n                result[i] = retail.durian[i];\r\n            }\r\n        } else if (\r\n            keccak256(bytes(participantType)) == keccak256(bytes(\"customer\"))\r\n        ) {\r\n            // If the participant is a customer, return the list of durians in the customer\r\n            Customer storage customer = customerAll[msg.sender];\r\n            result = new string[](customer.durian.length);\r\n            for (uint256 i = 0; i < customer.durian.length; i++) {\r\n                result[i] = customer.durian[i];\r\n            }\r\n        }\r\n\r\n        return result;\r\n    }\r\n\r\n    function getDurianById(string memory _id)\r\n        internal\r\n        view\r\n        returns (Durian storage)\r\n    {\r\n        return durianAll[_id];\r\n    }\r\n\r\n    function getDurianDetail(string memory _id)\r\n        public\r\n        view\r\n        returns (Durian memory)\r\n    {\r\n        require(durianExists(_id), \"Durian does not exist\");\r\n        Durian memory d = getDurianById(_id);\r\n        ////console.log(\"id : \", d.durianid);\r\n        ////console.log(\"farm : \", d.farmid);\r\n        ////console.log(\"center : \", d.centerid);\r\n        ////console.log(\"retail : \", d.retailer);\r\n        ////console.log(\"consumer : \", d.consumer);\r\n        return d;\r\n    }\r\n\r\n    function sendToDistribution(\r\n        string memory _id,\r\n        address distributionInfo,\r\n        string memory _delivery\r\n    ) public {\r\n        //require(durianExists(_id), \"Durian never exist in the system\");\r\n        //require(addressExists(distributionInfo),\"Distribution Center does not exist\");\r\n        //require(msg.sender == durianAll[_id].farmid,\"Only farm can send to distribution center\");\r\n        //require(durianExistsInHand(_id), \"Durian does not exist in Farm\");\r\n\r\n        // Update durianAll information\r\n        durianAll[_id].owner = distributionInfo;\r\n        durianAll[_id].centerid = distributionInfo;\r\n        durianAll[_id].distributeDate = block.timestamp;\r\n        durianAll[_id].deliveryMethod = _delivery;\r\n\r\n        // Remove durian from farm and add it to center\r\n        Center storage centers = centerAll[distributionInfo];\r\n        centers.durian.push(_id);\r\n        centers.durianInHand[_id] = durianAll[_id];\r\n        centers.durianInHand[_id].distributeDate = block.timestamp;\r\n        centers.durianInHand[_id].deliveryMethod = _delivery;\r\n\r\n        \r\n        removeDurianFromList(farmAll[msg.sender].durian, _id);\r\n        delete farmAll[msg.sender].durianInHand[_id];\r\n    }\r\n\r\n    function sendToRetailer(string memory _id, address retailerInfo) public {\r\n        // Check that the durian exists in the system and is in the distribution center\r\n        //require(durianExists(_id), \"Durian does not exist in the system\");\r\n        //require(durianAll[_id].centerid == msg.sender,\"Durian does not exist in the distribution center\");\r\n\r\n        // Update durianAll information\r\n        durianAll[_id].owner = retailerInfo;\r\n        durianAll[_id].retailer = retailerInfo;\r\n        durianAll[_id].retailDate = block.timestamp;\r\n\r\n        // Remove durian from center and add it to retailer\r\n        Retail storage retailers = retailAll[retailerInfo];\r\n        retailers.durian.push(_id);\r\n        retailers.durianInHand[_id] = durianAll[_id];\r\n\r\n        removeDurianFromList(centerAll[msg.sender].durian, _id);\r\n        delete centerAll[msg.sender].durianInHand[_id];\r\n    }\r\n\r\n    function buyFromRetailer(string memory _id) public payable {\r\n        //require(durianExists(_id), \"Durian never exist in the system\");\r\n        //require(durianExistsInHand(_id), \"Durian does not exist in retailer\");\r\n\r\n        Durian storage durian = durianAll[_id];\r\n        Retail storage retailer = retailAll[durian.retailer];\r\n\r\n        addParticipant(msg.sender, \"customer\", \"\", \"\");\r\n\r\n        // Check that the consumer sends enough ether to pay for the durian\r\n        //require(msg.value >= durian.price, \"Insufficient payment\");\r\n\r\n        // Remove durian from retailer and add it to consumer\r\n        durian.owner = msg.sender;\r\n        durian.customer = msg.sender;\r\n        durian.soldDate = block.timestamp;\r\n        customerAll[msg.sender].durianInHand[_id] = durian;\r\n        customerAll[msg.sender].durian.push(_id);\r\n\r\n        \r\n        removeDurianFromList(retailAll[durian.retailer].durian, _id);\r\n        delete retailer.durianInHand[_id];\r\n\r\n        // Update durian information in the durians mapping\r\n        durianAll[_id] = durian;\r\n        \r\n        // Send ether to retailer\r\n        buyer = payable(durian.retailer);\r\n        buyer.transfer(msg.value);\r\n\r\n        // Refund any extra ether sent by the consumer\r\n        if (msg.value > durian.price) {\r\n            payable(msg.sender).transfer(msg.value - durian.price);\r\n        }\r\n    }\r\n\r\n    function addRating(\r\n        string memory _id,\r\n        uint8[3] memory _ratings,\r\n        string memory _comment\r\n    ) public {\r\n        //require(durianExists(_id), \"Durian never exist in the system\");\r\n        // require(\r\n        //     durianAll[_id].customer == msg.sender,\r\n        //     \"Only the durian customer can add a rating\"\r\n        // );\r\n        // Get the durian from the durians mapping\r\n        Durian storage durian = durianAll[_id];\r\n\r\n        // Set the ratings and comment for the durian\r\n        durian.ratings = _ratings;\r\n        durian.comment = _comment;\r\n\r\n        // Update the durian information in the durians mapping\r\n        customerAll[msg.sender].durianInHand[_id] = durian;\r\n        durianAll[_id] = durian;\r\n\r\n        delete customerAll[msg.sender].durianInHand[_id];\r\n        removeDurianFromList(customerAll[msg.sender].durian, _id);\r\n    }\r\n\r\n    function removeDurianFromList(\r\n        string[] storage durianList,\r\n        string memory durianId\r\n    ) internal {\r\n        uint256 index;\r\n        bool found = false;\r\n\r\n        // Loop through the array to find the index of the element to remove\r\n        for (uint256 i = 0; i < durianList.length; i++) {\r\n            if (keccak256(bytes(durianList[i])) == keccak256(bytes(durianId))) {\r\n                index = i;\r\n                found = true;\r\n                break;\r\n            }\r\n        }\r\n\r\n        // If the element is found, remove it from the array\r\n        if (found) {\r\n            for (uint256 i = index; i < durianList.length - 1; i++) {\r\n                durianList[i] = durianList[i + 1];\r\n            }\r\n            durianList.pop();\r\n        }\r\n    }\r\n\r\n    function uint2str(uint256 _i) internal pure returns (string memory) {\r\n        if (_i == 0) {\r\n            return \"0\";\r\n        }\r\n        uint256 j = _i;\r\n        uint256 len;\r\n        while (j != 0) {\r\n            len++;\r\n            j /= 10;\r\n        }\r\n        bytes memory bstr = new bytes(len);\r\n        uint256 k = len;\r\n        while (_i != 0) {\r\n            k = k - 1;\r\n            uint8 temp = (48 + uint8(_i - (_i / 10) * 10));\r\n            bytes1 b1 = bytes1(temp);\r\n            bstr[k] = b1;\r\n            _i /= 10;\r\n        }\r\n        return string(bstr);\r\n    }\r\n}\r\n",
  "sourcePath": "C:\\Users\\shen8\\OneDrive\\TARUC\\Semester 3\\BMIS2003 Blockchain Application Development\\Assignment\\BlockChainAssignment\\BlockChainAssignment\\contracts\\DurianSupplyChain.sol",
  "compiler": {
    "name": "solc",
    "version": "0.8.19+commit.7dd6d404.Emscripten.clang"
  },
  "schemaVersion": "3.4.13",
  "updatedAt": "2023-05-06T23:02:44.460Z",
  "networkType": "ethereum",
  "devdoc": {
    "kind": "dev",
    "methods": {},
    "version": 1
  },
  "userdoc": {
    "kind": "user",
    "methods": {},
    "version": 1
  }
}